:1000000008308A0000280000C3274E23C923552941
:10001000C121C9274E005029C529C927CE22A029B0
:10002000452A0001D020D220A023D52052224129E8
:1000300020102000CC275310D620CC27D2225310DA
:1000400020102000D4326D382036E936693A650038
:10005000CD32EE377210541D25322000CD32EE37EE
:100060007210541D253200012010201047396131D3
:1000700061326F10201020100001D4326D3820360C
:10008000E936693A6500CD30F9377210541D2532D2
:100090002000CD30F9377210541D25320001201098
:1000A00020104739613161326F102010201000019B
:1000B0002D10D2213A002010202AC526501D2519C6
:1000C000AE18C6374300A02252294F292010201015
:1000D000D436BE1ED426A03700012010D436A03757
:1000E000202A4D10BC1E20182000C3376E33E93380
:1000F00075396500CE3A653BE1366537F43200016B
:100100003830840083130008031993280230F80064
:10011000F701F70B8928F80B88289730F700F70BC1
:100120008F28800B862808003F0EF039F7000F302B
:10013000060577048600000006149E289F280610F6
:1001400008000608F700060E0F39F80008008316AD
:10015000061086100611831286100F3083160605CE
:10016000F038860083120615000006140000A12056
:100170007808BF00061000000614BE28A1207808E9
:10018000BE0006100F3083160605860083123F0E50
:10019000F700F030F70577083E04F8007808BE0055
:1001A000BE1BAD283C1C86103C18861400000611AE
:1001B000000006103D0EBE000F30BE053E08BF0019
:1001C00094203D080F39BE00BF009420080028305D
:1001D000AB000C30AC000130AD000630AE000610B4
:1001E000861006110F30831606058600061086104D
:1001F00006110F308312B80080200130AA002A08AF
:10020000033C031C0B290330BF0094200530B800C9
:100210008020AA0AFF280230BF0094200530B800D1
:100220008020AA012A08033C031C22292B302A071C
:10023000840083130008AF00BC012F08BD00A72075
:10024000AA0A12298A150A124F28390B28292B29A4
:100250004030BA002C29BA0101303802BA073A08F6
:100260008038BB00BC013B08BD00A7200800370850
:10027000073A031945290B3A03194A29063A031983
:100280005229023A031958295D290130B800B900F2
:1002900025216229BC010130BD00A7200230B80031
:1002A000802062290130B8000230B900252162297E
:1002B000BC011030BD00A72062290130BC00370806
:1002C000BD00A72008000B08AA008B138316031794
:1002D0008C170C140000000083120313AA1B8B1749
:1002E00003170C087F390319B7290313AA00031752
:1002F0000D080313AB0003170F080313AC002A0803
:10030000B70037212B0803178D0003132C080317A0
:100310008F0003130B08AD008B13831603178C1784
:100320000C140000000083120313AD1B8B1703177E
:100330000C0D0E0D7F390319B7290313AA000317FB
:100340000D080313AB0003170F080313AC002A08B2
:10035000B70037212B0803178D0003132C08031750
:100360008F008D0A03198F0A0313632903170313E0
:1003700008000830B402031CC929343084008313F8
:100380000310800C00080319C929C7290000800B3D
:10039000C629080083160510831205100230B30029
:1003A000F830B400B921B30BD029831605140230FC
:1003B0008312B300F830B400B921B30BDA298316E5
:1003C000051483120800B4013408073C031C022AF8
:1003D0008316051083120510ED29EE290310B30CC6
:1003E0000318F4290510F529051483160510273084
:1003F000F700F70BF929FC290514FE29FF298312C0
:10040000B40AE4290800B3013308073C031C252A79
:1004100083160510831205100D2A0E2A8316051463
:100420000430F700F70B122A152A00000514831276
:1004300005181C2A03101D2A0314B40C4F30F700B2
:10044000F70B202A232AB30A042A3408F8000800EC
:10045000AA01CA21CC30B300E3214430B300E32128
:10046000AA08031D372A03227808AA00302ACA21C5
:10047000CC30B300E321BE30B300E321032278087F
:10048000AB0003227808AC002C08AE002B08AD00AE
:100490002E08B4002D08B3008E30F7003408F800A1
:1004A0003308F900FA01B41F5A2AF809F909F90AC0
:1004B0000319F80AF808031D672A7908F800F901FA
:1004C0000830F702F808031D672AF701702A0310A5
:1004D000F81B6E2AF90DF80DF703672AB41FF813FD
:1004E0007A08B6007908B5007808B4007708B30038
:1004F0003608BA003508B9003408B8003308B70028
:10050000BE01BD01BC018330BB00370803194A2B73
:10051000C3003B0803194A2BC302031C942A7F30F3
:10052000C30703184A2B9A2A8130C302031C4A2BA3
:1005300003194A2B4308F700F801F901FA01C20137
:100540003808C100C1173908C0003A08BF00193087
:10055000C3003E08BF020318BD2A0130C0020318C1
:10056000BD2AC1020318BD2AC2020318BD2AC20A4D
:10057000C10AC00A3E08BF07EF2A3D08C00203189F
:10058000D82A0130C1020318D82AC2020318D82A77
:10059000C20AC10A3D08C0073E08BF07031CEF2A74
:1005A000C00A031DEF2AC10A031DEF2AC20AEF2A5F
:1005B0003C088038C1020318EE2A0130C202031839
:1005C000EE2AC20A3C088038C1073D08C007031C58
:1005D000CC2AC10A031DCC2AC20ACC2A7A14C30B26
:1005E000F22AFD2A0310BF0DC00DC10DC20D03106C
:1005F000FA0DF90DF80DC40DA92A441C052B0310A2
:10060000F80CF90CFA0CC40C082BF70303194A2B4D
:10061000C41B312B0310BF0DC00DC10DC20D3E0810
:10062000BF0203181D2B0130C00203181D2BC1028D
:1006300003181D2BC202031C402B3D08C0020318E7
:10064000282B0130C1020318282BC202031C402BA7
:100650003C088038C1020318312B0130C202031C50
:10066000402BFA0A031D402BF90A031D402BF80A00
:10067000031D402BF70A03194A2BF80CF90CFA0C4E
:100680003808C3003C08C306C31F482BF8174E2B7D
:10069000F8134E2BF701F801F901FA017A08B200BC
:1006A0007908B1007808B0007708AF006430B8006E
:1006B00080202F08F7003008F8003108F9003208D0
:1006C000FA008A150A12A0280B08AB008B138316B8
:1006D00003178C170C140000000083120313AB1BCC
:1006E0008B1703189B2B03170C087F390313AB00E0
:1006F00003170D080313AC0003170F080313AD0015
:100700002B08B70037212C0803178D0003132D0881
:1007100003178F0003130B08AE008B138316031708
:100720008C170C140000000083120313AE1B8B17F0
:10073000AA0B9B2BBA2B03170C0D0E0D7F3903133D
:10074000AB0003170D080313AC0003170F080313C6
:10075000AD002B08B70037212C0803178D000313B9
:100760002D0803178F008D0A03198F0A0310031336
:10077000AA0B642B08008318C02B3F30840083131E
:10078000F701F801F901FA01BF01C001C101C2017D
:100790003E083D043C043B040319FE2B2030C300FB
:1007A0000310B70DB80DB90DBA0DBF0DC00DC10DB9
:1007B000C20D3E084202031DE72B3D084102031D06
:1007C000E72B3C084002031DE72B3B083F02031CBC
:1007D000F82B3B08BF023C08031C3C0FC0023D083D
:1007E000031C3D0FC1023E08031C3E0FC20203144E
:1007F000F70DF80DF90DFA0DC30BD02B3F08800053
:10080000840A40088000840A41088000840A420863
:10081000800008000408AF002E08B10003199C2CCA
:100820002D08BA002C08B9002B08B8002A08B70018
:10083000BE01BD012030BC008230BB003708031967
:100840008E2CBF003B0803198E2CBF0703182F2CDA
:100850007F30BF02031C8E2C03198E2C332C813069
:10086000BF0703188E2C3F08F700F801F901FA01C1
:100870003808C300C3173908C2003A08C10018304D
:10088000BF00C001411C5C2C3E08FA07031C4E2C23
:10089000F90A031D4E2CF80A0319C0173D08F90781
:1008A000031C552CF80A0319C0173C08B900B917E6
:1008B0003908F8070318C017C00DF80CF90CFA0C2A
:1008C000C30CC20CC10C0310BF0B412C0130F70745
:1008D00003188E2CF81B732CC30DFA0DF90DF80DAF
:1008E000F70303198E2CC31F842CFA0A031D842CD2
:1008F000F90A031D842CF80A031D842CF80CF90C4A
:10090000FA0CF70A03198E2C3808C0003C08C00600
:10091000C01F8C2CF817922CF813922CF701F801B9
:10092000F901FA017A08AD007908AC007808AB004B
:100930007708AA00B10B102C2D08BA002C08B900BA
:100940002B08B8002A08B7003708B63CB700FA01F0
:100950003808BB00B8170310B80CB90CBA0CFA0C65
:10096000F90CF80CF70CB70BAB2CBB1FC22CF7091A
:10097000F809F909FA09F70A0319F80A0319F90A33
:100980000319FA0A7A08AD007908AC007808AB00C0
:100990007708AA00AD1FD92CAF03AF16AA09AB097F
:1009A000AC09AD09AA0A0319AB0A0319AC0A031969
:1009B000AD0A3B30B6009A30B500CA30B400B3017E
:1009C0000A30B1002E080319AF0A83142A308400BC
:1009D00083132D08BA002C08B9002B08B8002A0888
:1009E000B7003608BE003508BD003408BC00330827
:1009F000BB00BB237808F708031D112D2E0A310216
:100A00000319112D2F080319132D0F393102031962
:100A10000B2D0318432DAF1B432D2F1B132D2030FF
:100A20003F2D2030AF05AF1E212DAF122E08031D24
:100A3000AF037708AF002D30B70037212F08F7003C
:100A4000AF012E083102031D2F2D7708AF002E3085
:100A5000B70037212F08F7002030AF0500303030C5
:100A6000AF1E3F2DAF122E08031DAF037708AF0056
:100A70002D30B70037212F08F700AF013030F707CE
:100A80007708B700372183103608BA003508B90057
:100A90003408B8003308B700BE01BD01BC010A30FC
:100AA000BB00BB237A08B6007908B5007808B4000B
:100AB0007708B300B10BE52C8A150A12C928310852
:100AC000F80130020318672D3008F700732DF70185
:100AD0000830B200B00DF70D310877020318F700A7
:100AE000F80DB20B6A2D080020302B1E3030AC0000
:100AF0002A08F700AA1F842DF709F70A7708AA0029
:100B00002D30AC00AB172B142A08B0006430B100B4
:100B10005F257708AA0030307807AD002A08B000BA
:100B20000A30B1005F2530307707AF0030307807EA
:100B3000AE002C08F70030302D020319A32DAB14A2
:100B4000AB1B2B15B72D2C08AD002030AC0030307E
:100B50002E020319AF2D2B14AB1BAB14B72D031DA5
:100B60002B14031DB72D2D08AE002030AD002B191E
:100B7000BE2DAB18C12D2B18C42DC72D2C08B700C6
:100B800037212D08B70037212E08B70037212F084D
:100B9000B700372108008E30F7002B08F8002A082C
:100BA000F900FA01F808031DDF2D7908F800F901B2
:100BB0000830F702F808031DDF2DF701E72D0310B9
:100BC000F81BE62DF90DF80DF703DF2DF8130800DB
:100BD0002B08B2002F08B206B21FF32D0311031029
:100BE000AB1B0314262E2B08B2002E08B3002A08D4
:100BF000B3020319012EB21F262E0308013A830007
:100C0000262E2F08B3002B08B30203190D2EB21F96
:100C1000262E0308013A8300262E3008B3002C0844
:100C2000B3020319192EB21F262E0308013A8300BE
:100C3000262E3108B3002D08B3020319252EB21F4A
:100C4000262E0308013A8300262E031008002108EF
:100C5000A2002008A30087150C30B700372101300F
:100C6000B800B9002521043003178D0000308F0033
:100C7000031363210130B8000230B90025210B3085
:100C800003178D0000308F00031363210130B8007B
:100C90000230B90025210830AA00FA30B8008020BF
:100CA000AA0B4D2E0130B800B900252112300317D0
:100CB0008D0000308F00031363210130B800023033
:100CC000B90025211A3003178D0000308F0003135F
:100CD00063210830AA00FA30B8008020AA0B6B2EDE
:100CE0000C30B70037210130B800B900252122307F
:100CF00003178D0000308F00031363212108633C2C
:100D0000031C9A2E0130B8000230B900252128308A
:100D100003178D0000308F00031008300313AA0062
:100D200064232208AA001830AB0074252030B700D5
:100D30003721AE2E0130B8000230B90025212E3007
:100D400003178D0000308F00031008300313AA0032
:100D500064232208AA001830AB0074258519B32E2D
:100D6000851DB02EA20A051AB82E051EB52EA203A7
:100D70000519EA2E051DBA2E0B08F7008B13031771
:100D80008D010313220803178C0083168C130C1596
:100D900055308D00AA308D008C148C18CD2E0C117E
:100DA0007708831203138B040C30B700372101300E
:100DB000B800B9002521343003178D0000308F00B2
:100DC000031363210430AA00FA30B8008020AA0B74
:100DD000E42EEB2E732E0C30B70037210130B80013
:100DE000B90025213D3003178D0000308F0003131B
:100DF00063212108633C031C152F0130B800023029
:100E0000B9002521433003178D0000308F000310F7
:100E100008300313AA0064232308AA001830AB008B
:100E200074252030B7003721292F0130B800023057
:100E3000B9002521493003178D0000308F000310C1
:100E400008300313AA0064232308AA001830AB005B
:100E5000742585192E2F851D2B2FA30A051A332FD4
:100E6000051E302FA3030519662F051D352F0B080E
:100E7000F7008B13013003178D00031323080317AA
:100E80008C0083168C130C1555308D00AA308D0004
:100E90008C148C18492F0C117708831203138B04C0
:100EA0000C30B70037210130B800B90025214F3090
:100EB00003178D0000308F00031363210430AA0054
:100EC000FA30B8008020AA0B602F672FEE2E0C306E
:100ED000B7003721A5010A30A4000B08F7008B13D7
:100EE000033003178D000313240803178C008316A7
:100EF0008C130C1555308D00AA308D008C148C1875
:0E0F00007F2F0C117708831203138B04080057
:1010000003081F398300713083168F000F081530D5
:101010008312A0001330A100A5018316031709084D
:10102000C039890003131F129F1200300317880074
:10103000831287018801890183131F3083160313EC
:101040008500003086008700831287017130831687
:101050008F000F0803170908C039890003131F12F6
:101060009F12003003178800831203131F1094018E
:1010700083160108C73908388100831290010030B7
:10108000F800920000308316920083120317870144
:1010900088018901F030031397058A11E7288A1522
:1010A0000C30B7008A1137218A15033003178D00E1
:1010B00083168C130C1483120C080313A400240849
:1010C0000A3C031D7628013003178D0083168C130C
:1010D0000C1483120C080313A00003178D01831650
:1010E0008C130C1483120C080313A100051D112A84
:1010F0000330B8000230B9008A1125218A15523018
:10110000B7008A1137218A154130B7008A1137217B
:101110008A153A30B7008A1137218A150930B8008C
:101120000230B9008A1125218A15583003178D0025
:1011300000308F008A11031363218A158A11282A2F
:101140008A157A08A9007908A8007808A700770806
:10115000A6000130B800B9008A1125218A155B303C
:1011600003178D0000308F00031008300313AA000E
:101170008A1164238A15013084002908AD002808EB
:10118000AC002708AB002608AA000130AE008A1187
:101190000A2C8A156F30B7008A1137218A1543301F
:1011A000B7008A1137218A152008093C031CEC2856
:1011B0000630B8000230B9008A1125218A152008AE
:1011C000AA001830AB008A1174258A152030B700A8
:1011D0008A1137218A15FA280630B8000230B90082
:1011E0008A1125218A152008AA001830AB008A111F
:1011F00074258A152108093C031C12290E30B800F9
:101200000230B9008A1125218A152108AA00183058
:10121000AB008A1174258A152030B7008A11372156
:101220008A1520290E30B8000230B9008A11252114
:101230008A152108AA001830AB008A1174258A1576
:10124000A50A2508183C031C871185182B29851C25
:1012500027298715A501200821020318AE29A00817
:101260000319AE29A1080319AE29AB012108AA0070
:101270008A11CB258A152908AD002808AC0027085B
:10128000AB002608AA007A08B1007908B0007808F7
:10129000AF007708AE008A11E8258A150318512996
:1012A0000319871601302002AB01AA008A11CB2551
:1012B0008A157A08AD007908AC007808AB00770889
:1012C000AA002908B1002808B0002708AF002608A6
:1012D000AE008A11E8258A1503186F2903198712B1
:1012E000AB012008AA008A11CB258A157A08AD0027
:1012F0007908AC007808AB007708AA002908B1008B
:101300002808B0002708AF002608AE008A11E8259B
:101310008A1503188C290319071601302107AB0120
:10132000AA008A11CB258A152908AD002808AC002F
:101330002708AB002608AA007A08B1007908B00097
:101340007808AF007708AE008A11E8258A150318DF
:10135000AA29031907120A30A400102A0C30B7007A
:101360008A1137218A150130B800B9008A11252168
:101370008A15633003178D0000308F008A11031324
:1013800063218A150130B8000230B9008A11252185
:101390008A156D3003178D0000308F008A110313FA
:1013A00063218A150630AA00FA30B8008A1180201D
:1013B0008A15AA0BD4290C30B7008A1137218A1557
:1013C0000130B800B9008A1125218A15753003173C
:1013D0008D0000308F008A11031363218A150130BC
:1013E000B8000230B9008A1125218A157A30031716
:1013F0008D0000308F008A11031363218A15063097
:10140000AA00FA30B8008A1180208A15AA0B012A96
:101410000C30B7008A1137218A158A1127268A15C0
:1014200076280C30B7008A1137218A158A112726B1
:101430008A1524080A3C031D302A013003178D0049
:1014400083168C130C1483120C080313A0000317CB
:101450008D0183168C130C1483120C080313A10046
:06146000A50176286300DF
:04400E00F420FF3F5C
:00000001FF
;PIC16F886
;CRC=1E42  CREATED="02-dic-20 10:52"
